:020000020000FC
:100000000C94CC16189518950C946D0D0C948F0DBE
:10001000189518950C94D30C189518951895189553
:1000200018951895189518950C942E1418951895E0
:100030001895189518951895189518951895189558
:100040001895189518951895189518951895189548
:1000500018951895189518950C948C0726031C0371
:1000600012030703FD02F202E702DC02D002C5021E
:10007000B902AD02A102950289027C0270026302FC
:1000800057024A023E023202250219020C02000205
:10009000F401E801DC01D001C401B801AD01A20105
:1000A00096018C01810176016C01620158014E01BB
:1000B00044013B0132012901200117010F01070111
:1000C000FF00F700F000E900E100DB00D400CD0004
:1000D000C700C100BB002F03390342034B03530386
:1000E0005C0364036C0373037B03820388038F0345
:1000F00095039B03AA03A703A403A1039E039B03E9
:100100009803940391038D038A03860382037E037D
:100110007B03770372036E036A03660361035D0367
:10012000580353034F034A03450340033B0336037D
:1001300030032B03260320031B0315030F030A03BD
:100140000403FE02F802F202EC02E602DF02D90228
:10015000D302CC02C602BF02B902B202AC02A502AF
:100160009E02970291028A0283027C0275026E024D
:10017000680261025A0253024C0245023E023702F3
:100180003002290222021B0215020E02070200029F
:10019000F901F201EC01E501DE01D801D101CB0149
:1001A000C401BE01B701B101AA01A4019E019801D9
:1001B00092018C01860180017A0174016E0168014F
:1001C00063015D01580152014D01470142013D01AA
:1001D000380133012E01290124011F011A011501E3
:1001E00011010C0108010301FF00FB00F600F20001
:1001F000EE00EA00E600E200DE00DB00D700D300FC
:10020000CF00CC00C800C500C200BE00BB00350056
:1002100060008000B0001D013D015A017A01970184
:10022000B901DA01F901160240026D028202A2024E
:10023000EF023203B003F2031D5A3440E17A344036
:100240006ABC344091ED34407D3F3540A470354068
:100250002DB23540F2D23540B6F335403F35364009
:10026000666636408D97364017D93640643B374036
:10027000EE7C374014AE37409EEF3740B0723840C6
:10028000E926394021B03A4093183C40510A802A6F
:100290000000000A510A000059551801111E111BD7
:1002A000500B411B411F1101511F511B0000000049
:1002B00000000000000000000000510F91394114BF
:1002C0009131411E410E411D500F8020101548866E
:1002D0004014780570855115510E5195518E21901D
:1002E00081205015484450C528C0282009500000DE
:1002F000000000000000000044444D4D5959004DDD
:100300004D444459590059594D4D44440004050287
:10031000030001040500010203000102030405F8C3
:1003200002FF0206030D0313031903080108010865
:100330000108010801100210022004090909090935
:100340000A0A0B0A100400000B00006810141E04B7
:10035000000015230400001600005E0917290400A0
:1003600000180000BF091936040000240000B00A7C
:100370001B4A0400001C0000EB0A1D4F0400001E75
:100380000000900B1F5B0400002000008D0C286E05
:100390000400002A000009112B000093113274049C
:1003A0000000330000D914357904000037BE040082
:1003B0000036000023153800001A163C84040000A3
:1003C0003D000097064690040000470000C7065015
:1003D00098040000510000E9065A9E0400005BA644
:1003E0000400005CAE0400005D0000D3085ECC0495
:1003F00000005F0000C10F60D7040000610000DC56
:100400000F62E7040000630000F70F000000000027
:1004100041565220427574746572666C7900546955
:100420006D6500436C6F636B0041646A7573742083
:10043000436C6F636B004368616E676520436C6F4C
:10044000636B20466F726D61740044617465004196
:10045000646A7573742044617465004368616E67F3
:1004600065204461746520466F726D6174004D753E
:10047000736963004E616D6500456E746572206E30
:10048000616D650054656D706572617475726500AB
:10049000566F6C74616765004C69676874004F70D3
:1004A00074696F6E7300446973706C6179004164A4
:1004B0006A75737420636F6E747261737400446F35
:1004C000776E6C6F6164204E616D6500426F6F7472
:1004D0006C6F6164657200506F776572205361764E
:1004E00065204D6F6465004175746F20506F7765AE
:1004F000722053617665000A045A0A020B0A051439
:100500000B030A14040A14021514030A140528150F
:10051000041B15021615031415051B1704191701E2
:1005200018170316170519190417190124190316AA
:100530001905171B04151B021C1B03141B05151D95
:10054000041F1D011E1D031C1D051F1F041D1F016F
:10055000201F031C1F051D28041428022A28030A33
:1005600028053229022A290328320428320233328C
:10057000030A32053C35043735013635033335057A
:10058000373704353701383703333705353C043204
:100590003C023D3C030A3C054646043C46024746B5
:1005A000030A46055050044650025150030A5005B4
:1005B0005A5A04505A025B5A030A5A050A5B0462EB
:1005C0005B025C5B035A5B055E5C015D5C035B5E2A
:1005D000045B5E025F5E035A5E056060045E60025B
:1005E0006160035A60056262046062026362035ADA
:1005F00062055B0000004A756D7020746F20626FA9
:100600006F746C6F616465720050726573732065FE
:100610006E74657220746F20736C6565700046752A
:100620007220456C69736500030008007B010800B7
:10063000920108007B010800920108007B0108007C
:10064000FA010800AA010800DE01040038020800CF
:1006500001000800BC030800F6020800380204008C
:10066000FA01080001000800F60208005A0208001A
:10067000FA010400DE01080001000800F60208008B
:100680007B010800920108007B010800920108002C
:100690007B010800FA010800AA010800DE0104003D
:1006A0003802080001000800BC030800F602080038
:1006B00038020400FA01080001000800F6020800F0
:1006C000DE010800FA010400380200000100547540
:1006D000726B6579206D617263680003001000A47D
:1006E000021000F602100024031000F60204007E3F
:1006F000021000380210007E021000A40210007EDA
:10070000020400FA011000DE011000FA01100018C6
:10071000021000FA011000520110007B011000923B
:100720000110007B011000520110007B01100092AB
:100730000110007B0104003F0108007B0108003F1D
:10074000012000AA0120007B011000520108007B5B
:10075000010800AA0108007B012000AA0120007BFB
:10076000011000520108007B010800AA0108007B6B
:10077000012000AA0120007B011000520108007B2B
:10078000010800AA010800C3010400FA01000001E9
:1007900000536972656E65310000002000900120F1
:1007A000008D0120008A01200087012000840120A3
:1007B00000810120007E0120007B012000780120C3
:1007C0000075012000720120006F0120006C0120E3
:1007D0000069012000660120006301200060012003
:1007E000005D0120005A0120005701200054012023
:1007F00000510120004E0120004B01200048012043
:100800000045012000420120003F0120003C012062
:100810000039012000360120003301200030012082
:10082000002D0120002A0120002A0120002D012096
:100830000030012000330120003601200039012062
:10084000003C0120003F0120004201200045012022
:1008500000480120004B0120004E012000510120E2
:100860000054012000570120005A0120005D0120A2
:100870000060012000630120006601200069012062
:10088000006C0120006F0120007201200075012022
:1008900000780120007B0120007E012000810120E2
:1008A0000084012000870120008A0120008D0120A2
:1008B00000900100000100536972656E653200030B
:1008C000000400DE0104003F0100000100576869D8
:1008D00073746C650000002000C8002000C3002075
:1008E00000BE002000B9002000B4002000AF0020AE
:1008F00000AA002000A5002000A00020009B0020EE
:100900000096002000910020008C0020008700202D
:1009100000820020007D002000780020007300206D
:10092000006E002000690020006400080001002023
:1009300000C8002000C3002000BE002000B9002035
:1009400000B4002000AF002000AA002000A5002075
:1009500000A00020009B00200096002000910020B5
:10096000008C00200087002000820020007D0020F5
:10097000007D00200082002000870020008C0020E5
:100980000091002000960020009B002000A0002085
:1009900000A5002000AA002000AF002000B4002025
:1009A00000B9002000BE002000C3002000C80000E5
:1009B0000000002806DB069907BF08D50800001EC6
:1009C00006CE069107B708CD080000504C415949A2
:1009D0004E470077616974696E6720666F7220699F
:1009E0006E707574206F6E205253323332003901AD
:1009F0000001F43213003902000000937C0003E888
:100A000000937A0001D0089500E010E08B9A839A59
:100A1000EAE7F0E0208120682083208120642083A1
:100A2000208124FFFDCF20E00DC030813064308371
:100A3000308134FFFDCF6091780050917900060F2E
:100A4000151F2395283088F38B98839820812F7762
:100A5000208343E00E940C1708950E943719D4DFC9
:100A600020917C00222309F091C0209104012330C1
:100A700009F04CC00B3223E0120794F080E001C073
:100A800083958A3158F4E6EDF0E022E0829FE00D94
:100A9000F11D259134912017310794F31DE216C002
:100AA0000032120780E08CF401C08395843658F43C
:100AB000ECE5F0E022E0829FE00DF11D25913491FC
:100AC0000217130794F31BE201C010E201E00E9439
:100AD000AB08082F0E940B07502E10E200E00E9486
:100AE000AB08152D12951F70105D02E00E94AB0837
:100AF0000FE0502200E3500E152D03E00E94AB08DA
:100B00001AE204E00E94AB0813E407C1209104013B
:100B1000243009F009C180E001C083958E3858F473
:100B2000E4EFF0E022E0829FE00DF11D2591349189
:100B30002017310794F7082F0E941607D801843632
:100B400038F01BE200E00E94AB088D01105D05C08B
:100B500010E200E00E94AB081BE201E00E94AB083B
:100B60001A2F15951595159515951F70105D02E0B6
:100B70000E94AB081A2F1F70105D03E00E94AB08A3
:100B80001AE204E00E94AB0816E4C7C020917C0082
:100B9000213009F08DC0D80102E02FDF35DF80E081
:100BA00001C08395873158F4EEE0F2E022E0829FA5
:100BB000E00DF11D259134912017310794F388231E
:100BC00029F406EF18E224E330E410C0853120F068
:100BD0000AEB19E42CE3F8CFE8E3F2E004E0809FAD
:100BE000E00DF11D0591159125913491E0E0F1E0C2
:100BF000008311832283338301E000937C008D0105
:100C0000212F220F220B322F0E948F17E0E040810C
:100C10005181628173810E944B1840E050E060E88E
:100C200074E40E94C41840E050E060EC70E40E945C
:100C30004B18C801D9010E949C17602E0E940B0717
:100C4000502E0FE0502200E3500E452C062D10E0F0
:100C500020E030E00E949A17A801B9018C019D01A3
:100C60000E942D1840E050E068EC72E40E944B189E
:100C70000E949C170E940B07502E10E200E00E9479
:100C8000AB0810E201E00E94AB0810E202E00E9413
:100C9000AB08142D03E00E94AB0816E504E00E94A7
:100CA000AB0852940FE0502200E3500E152D35C0D2
:100CB00000917C000230C1F5009179000E940B0781
:100CC00050907800452C0FE0402200E3400E0AE3EC
:100CD000401610F007E0400E52940FE0502200E35F
:100CE000500E0AE3501610F007E0500E11E400E039
:100CF0000E94AB0814E401E00E94AB0813E402E098
:100D00000E94AB0810917900105D03E00E94AB08CF
:100D1000152D04E00E94AB08142D05E00E94AB08DD
:100D200010E006E00E94AB08E7E00C943F190E9437
:100D30003A19802FA0E0B1E0FD010581002341F0C8
:100D400000E005835ADE0DE215E00E947A1404C02B
:100D500010E001E00E94C308833049F40DE215E081
:100D60000E94A11401E0FD0105830CE30DC0843055
:100D700011F0853041F4FD010481043011F403E0E9
:100D800001C004E004830DE3E4E00C9442198A936B
:100D9000802F00910601002351F000E0009306012E
:100DA00001E02BDE0DE215E00E947A1404C010E091
:100DB00001E00E94C308833049F40DE215E00E946F
:100DC000A11401E00093060106E401C007E4899143
:100DD00008958A93802F00910701002351F000E0CD
:100DE0000093070102E009DE0DE215E00E947A148B
:100DF00004C010E001E00E94C308833049F40DE212
:100E000015E00E94A11401E00093070100E501C074
:100E100001E589910895102F00E002C003951A5052
:100E20001A30E0F70295007F012B0895202F00E093
:100E300010E003C00F5F1F4F24562436D8F744E05C
:100E40000E94001703C00F5F1F4F2A502A30D8F7A7
:100E500044E00E94001730E0202B312B89010895D7
:100E600000E04CD0E7EEF0E000810F60008307EB7C
:100E70000093E50007E00093E60000EC0093E40037
:100E8000E4EE008108600083E7EE0081006E0083DD
:100E9000F09308010895202F612F00E010E06630E4
:100EA00060F52A3270F02B3760F4213608F02F7D80
:100EB000ECE8F2E02A5202E0209FE00DF11D0591DE
:100EC000149160FB16F45FE001C050EFE9E0F1E03F
:100ED000262F269530E0E20FF31F0DC0202F2F7034
:100EE00044E00E9406170EF4229540814523422BD0
:100EF000408335963395343088F30895002309F004
:100F00000FEF20E006C030E0F901E85FFE4F0183FB
:100F100023952431C0F308956A925A924A92BA9363
:100F2000AA939A938A93FA93EA933A922A921A92FC
:100F30000A927A936A935A934A933A932A931A930A
:100F40000A936FB6A8E0B1E000913902002361F482
:100F5000FD0104A9039504AB04A9043028F001E0C5
:100F60000093390200E004AB00918C01033061F47E
:100F7000FD0105A9039505AB05A9013140F001E08C
:100F800000938C010FE002C000E0FD0105AB03A956
:100F90000A9503AB07A5002369F003A9002361F4B8
:100FA00000A9002319F401E00C9306C000A90A95DA
:100FB00000AB02C000E006A790E00C91013009F000
:100FC00050C001A90530552408F0539480E003C0B7
:100FD000182F61DF8395863018F5FD0106A5102FC7
:100FE000110F110B282F30E0200F311F8AF09923A9
:100FF00079F47596E20FF31F008107FB16F411E0F8
:1010000001C010E0412E0F7721F4982F939501C075
:1010100000E24420E9F25520D9F2182F00E2D9CF9E
:1010200080E00BC03196082F10E0E00FF11F208107
:10103000F801E451FF4F208383958431FD0190F343
:1010400002A9002311F001E001C000E00093F400C8
:10105000913011F40AEF02C006A5039506A700E03F
:101060000C9303A9002311F403E003AB01A90A3098
:1010700011F400E002C001A9039501AB6FBE099114
:1010800019912991399149915991699179910990D1
:10109000199029903990E991F99189919991A991A3
:1010A000B99149905990699018952091080122238F
:1010B000E1F720E005C0F901E35EFE4F4083239590
:1010C00030E0F801E20FF31F4491442311F029317D
:1010D00090F3F901E35EFE4F3083273048F001E0E2
:1010E000009337013093360103E00093380104C0C8
:1010F000309337013093360101E0009308010895E1
:10110000209108012223E1F720E005C0F901E35E08
:10111000FE4F4083239530E0F801E20FF31F40813A
:10112000442311F0293190F3F901E35EFE4F30833F
:10113000273048F001E0009337013093360103E097
:101140000093380104C0309337013093360101E039
:10115000009308010895093130F4202F30E0F9019F
:10116000E35EFE4F1083089500E007C020E210E028
:10117000F801E35EFE4F208303950931B8F308952B
:1011800000933A010895209108012223E1F710937A
:10119000370110E01093360100930801089500E034
:1011A0000093390108959A938A93802F00913F010B
:1011B000002321F0D9DF00E000933F0100913E01C0
:1011C0000E940B07902F13E400E0C5DF14E501E057
:1011D000C2DF12E502E0BFDF10E203E0BCDF192F3F
:1011E00012951F70105D04E0B6DF9F70905D192F9F
:1011F00005E0B1DF10E001E0C6DF843029F4EEE362
:10120000F1E00081039506C0853029F4EEE3F1E0BA
:1012100000810A95008300913E010F3F19F400E020
:1012200000933E0100913E01003118F00FE0009361
:101230003E011091E700107F00913E010F70012BDD
:101240000093E700813029F401E000933F010CE5B1
:1012500001C00DE589919991089508EE13E00E946F
:101260005610F894E0E7F0E000810E7F008308E07C
:101270000093B600F093B200E0EB008105600083BC
:10128000E6EB108111700091B6000470012BC1F7DC
:101290000FEF07BBE0E70081016000837894E8E48A
:1012A000F1E000E0008701870CE0028701E003879E
:1012B000048703E010E00683178308950E9439191C
:1012C000802FA8E4B1E0FD0104A9013051F48D01A3
:1012D000045E1F4F228530E0020F131FF8010081CA
:1012E00001C002850E940B07902FFD0101850E941D
:1012F0000B07402EFD0100850E940B07A02F192F20
:1013000012951F70105D00E00E94AB089F70905D09
:10131000192F01E00E94AB08142D12951F70105D6B
:1013200002E00E94AB080FE0402200E3400E142DC3
:1013300003E00E94AB081A2F12951F70105D04E0A5
:101340000E94AB08AF70A05D1A2F05E00E94AB08A9
:1013500010E006E00E94AB0801E00E94C00810E027
:1013600001E00E94C308833011F405E105C082301A
:1013700011F407E101C006E1E5E00C9441190E9477
:101380003819802F08E4402E01E0502EF20105A903
:10139000002331F0028500830185018300850283EB
:1013A00004A9013041F48201045E1F4F208130E026
:1013B000020F131FF80100810E940B07B02FF201EA
:1013C00001810E940B07A02FF20102810E940B07EE
:1013D000902FF20106A9002311F400E801C000E0FB
:1013E0002B2F22952F70205D102F122B00E00E94D2
:1013F000AB08F20106A9002311F400E801C000E0E7
:10140000BF70B05D102F1B2B01E00E94AB08F201F2
:1014100006A9013011F400E801C000E02A2F22954E
:101420002F70205D102F122B02E00E94AB08F201FA
:1014300006A9013011F400E801C000E0AF70A05D22
:10144000102F1A2B03E00E94AB08F20106A902300C
:1014500011F400E801C000E0292F22952F70205DD3
:10146000102F122B04E00E94AB08F20106A90230F3
:1014700011F400E801C000E09F70905D102F192B5F
:1014800005E00E94AB0810E006E00E94AB0801E016
:101490000E94C008882311F00E94CF0810E001E0EC
:1014A0000E94C30801E0F20105AB843061F506A992
:1014B00010E0E00FF11F008103950083F20100812D
:1014C0000F3F11F407E100830081083110F000E0C4
:1014D000008301810F3F11F40BE3018301810C3381
:1014E00010F000E0018302810F3F11F40BE302834F
:1014F00002810C3310F000E0028300E005AB08E14C
:10150000E6E00C944019853039F406A910E0E00FAC
:10151000F11F00810A95D1CF833049F406A9002339
:1015200019F402E006ABCACF06A90A95FBCF8230B8
:1015300041F406A9023011F400E0F4CF06A90395A6
:10154000F1CF813009F0BACFF89400810287018190
:10155000018702810087789400E006AB06E1D0CFD6
:101560000E943A19802FA8E4B1E0FD0107A90023E9
:1015700069F000E007AB04A9002321E019F400E4BE
:1015800011E002C004E411E00E9480088430A9F454
:10159000FD0104A9002359F401E004AB21E004E4B7
:1015A00011E00E94800804E2E4E00C94421900E09B
:1015B00004AB21E000E411E0F4CF853029F4FD0113
:1015C00004A9013049F7F3CF813069F701E0FD014B
:1015D00007AB06E1E9CF0E943819502EA8E4B1E02C
:1015E000FD0106810E940B07402EFD0104850E942B
:1015F0000B07802FFD0103850E940B07902F142DF0
:1016000012951F70105D212F05E213E0FD01368554
:1016100042E0349F000D111DF80105911491F8016D
:101620000491122F0E94AB080FE0402200E3400E0D
:10163000142D25E233E0FD01068542E0049F200DD4
:10164000311DF90125913491F901319604910E94DF
:10165000AB08182F12951F70105D25E233E0FD01D5
:10166000068542E0049F200D311DF901259134913A
:10167000F901329604910E94AB088F70805D182F9B
:1016800025E233E0FD01068542E0049F200D311D77
:10169000F90125913491F901339604910E94AB0828
:1016A000192F12951F70105D25E233E0FD010685AC
:1016B00042E0049F200D311DF90125913491F9017B
:1016C000349604910E94AB089F70905D192F25E21B
:1016D00033E0FD01068542E0049F200D311DF90134
:1016E00025913491F901359604910E94AB0810E0E0
:1016F00006E00E94AB0801E00E94C00810E001E093
:101700000E94C30803E0501611F40BE106C002E08A
:10171000501611F40DE101C00CE1E6E00C94401903
:101720000E943A19802FA8E4B1E0FD0100AD00232A
:1017300031F006810383048504830385058301ADAD
:10174000002391F403810E940B07902F10E200E028
:101750000E94AB0810E201E00E94AB0819E502E02C
:101760000E94AB0819E529C001AD013091F4048154
:101770000E940B07902F10E200E00E94AB0810E2DD
:1017800001E00E94AB081DE402E00E94AB081DE4EA
:1017900014C001AD023009F505810E940B07902F9E
:1017A00010E200E00E94AB0810E201E00E94AB08EA
:1017B00014E402E00E94AB0814E403E00E94AB08CA
:1017C000192F12951F70105D04E00E94AB089F70E6
:1017D000905D192F05E00E94AB0810E006E00E9422
:1017E000AB0800E00E94C008882311F00E94CF08D7
:1017F00010E001E00E94C30801E0FD0100AF843069
:10180000D9F58D010D5F1F4F21AD30E0020F131F81
:10181000F801008103950083FD0103810F3F11F45E
:1018200003E603830381043610F000E003830481A0
:10183000002311F40CE0048304810D3010F001E06A
:1018400004830485023009F049C00681037009F061
:1018500045C00681178144E650E00E9412174129D5
:1018600049F4FD010681178140E951E00E941217F9
:101870004129A1F501E033C0853059F48D010D5F98
:101880001F4F21AD30E0020F131FF80100810A95B0
:10189000C2CF833049F401AD002319F402E001AF57
:1018A000BBCF01AD0A95FBCF823041F401AD0230D0
:1018B00011F400E0F4CF01AD0395F1CF813009F0D0
:1018C000ABCFF894038110E006831783048104876B
:1018D00005810387789411AF0CE11CC000E0002360
:1018E00011F00DE10AC08D01015F1F4FFD01248140
:1018F00030E0020F131FF8010081FD011581112353
:1019000009F405831581011710F401E0058300E057
:1019100000AF0EE1E4E00C9442190E943A19802FC6
:10192000A8E4B1E0FD0102AD002379F000E002AFD0
:1019300021E00FE113E0368542E0349F000D111DD8
:10194000F801059114910E9455088430D1F4FD01ED
:101950000685023010F000E002C006850395068778
:1019600021E00FE113E0368542E0349F000D111DA8
:10197000F801059114910E94550800E2E4E00C94EE
:101980004219853049F4FD010685002311F402E077
:10199000E6CF06850A95E3CF813079F701E0FD01B6
:1019A00002AF0CE1EBCFBA93AA93FA93EA931A929F
:1019B0000A926A935A934A933A932A931A930A93F0
:1019C0006FB7A8E4B1E0FD010085039500870085AD
:1019D0000C3309F05AC000E00087018503950187A8
:1019E00005850395058701850C3308F44EC000E09A
:1019F00001870285039502870285083108F445C0F6
:101A000000E0028703850395038704850230C9F44B
:101A100006810370B1F40681178144E650E00E940C
:101A20001217412949F4FD010681178140E951E06F
:101A30000E941217412919F401E0FD0103C000E0E2
:101A4000FCCF00E003AF8D01015F1F4F248530E024
:101A5000020F131FF801008110E0FD0123AD200FDC
:101A6000331F03852017310784F401E003870485C1
:101A70000395048704850D3040F001E0048706815A
:101A800017810F5F1F4F068317836FBF099119914D
:101A90002991399149915991699109901990E99148
:101AA000F991A991B991189527982698249805B18C
:101AB000006D05B900E00DB90EB10C600EB90CE077
:101AC00000936B0000ED00936C0000EC0CBB0DBBB1
:101AD0000E94B81400933C0208958A93FA93EA9303
:101AE0003A922A921A920A927A936A935A934A9352
:101AF0003A932A931A930A938FB733D08FBF0991E1
:101B00001991299139914991599169917991099046
:101B1000199029903990E991F991899118958A93B2
:101B2000FA93EA933A922A921A920A927A936A93D1
:101B30005A934A933A932A931A930A938FB711D0E0
:101B40008FBF0991199129913991499159916991C1
:101B500079910990199029903990E991F991899199
:101B6000189513B11095107D0CB100950C70102BC9
:101B700016FB16F404E011C017FB16F405E00DC0C7
:101B800012FB16F403E009C013FB16F402E005C0D3
:101B900014FB16F401E001C000E0002369F0E9E362
:101BA000F2E01081112341F01281112319F4018315
:101BB00001E0028300E0008300EC0CBB00E0009336
:101BC00055010895F894E9E3F2E00281002321F041
:101BD000018110E0128301C000E07894089505B1FE
:101BE0000F6005B904B1076004B901E00DBD0CE553
:101BF0000CBD08950EBD0DB5102F17FFFCCF0EB50F
:101C00000895289A289807E5F5DF00E0F3DF202FF4
:101C10002873259525952595EBE3F3E030E0E20F59
:101C2000F31F149110933F02EBE2F3E012E0219FC7
:101C3000E00DF11D25913491EDE3F2E02083318335
:101C400008950E943B19C901A12F289A28980130B4
:101C500059F404E8CFDF00E0CDDF8C01012FCADFAB
:101C6000082FC8DF0A2FC6DFE3E00C9443199A93CC
:101C70008A93C901289A2898013099F403E8BADFB9
:101C80008C0140E120913F02421B0E940617B2DF07
:101C90008C0140913F0248500E940017ABDF00E0EA
:101CA000A9DF289A2898ADDF07FBEEF78991999173
:101CB00008950E943A19D801C901289A289808E67F
:101CC00099DF8D0140E120913F02421B0E940617DF
:101CD00091DF8D0140913F0248500E940017202F54
:101CE0008C01012F020F86DF082F84DF00E082DFE6
:101CF00000E080DF00E07EDF00E07CDFE4E00C94C9
:101D000042190E943A19B801CA01A0E00AC0B0E025
:101D1000FB01EA0FFB1F0081AC010E94F416019643
:101D2000A395A217A0F3E4E00C9442190E943A197B
:101D3000B801CA01A0E00AC0AC010E94E816B0E0F8
:101D4000FB01EA0FFB1F00830196A395A217A0F3E6
:101D5000E4E00C9442190AE0502EA8E8B1E0FD013D
:101D6000008783E493E08C0103531F4F0D931C9372
:101D7000119766247724E1D0789405C001E003BF71
:101D8000889500E003BFFD010581002309F04AC0EA
:101D90000D911C911197012B69F021E00D911C917F
:101DA00011970E94550800E00E94C00800E00D93C2
:101DB0000C9311970E94E20D20E06216720619F052
:101DC000F301099506C0002329F0102FFD010085BD
:101DD0008AD0502EFD010085501621F150864424F2
:101DE00001C04394442D50E005E010E00E94F81635
:101DF000FC01E00FF11F24912223A1F02491FD01A9
:101E00003085231771F7FC013196E00FF11F259102
:101E100034912D933C931197FC013396E00FF11F01
:101E200065907490FD010381002361F000915501DC
:101E30001281011738F00AE0008700E00093550195
:101E400001E005831F9904C01E9902C00E949E12E2
:101E500013B11095107D0CB100950C70102B181556
:101E600021F0812E00E0FD010BC0112351F0FD0196
:101E70000481013021F40E94B10D03E0F4CF03E0AE
:101E80000483FD010681002309F078CF0781002338
:101E900009F074CF0581002329F0E4EEF0E0008121
:101EA0000F77008307E003BF8895FD0105810023BC
:101EB00009F467CF1E9965CF00E00583442408C06C
:101EC00020E0042D10E0F801E451FF4F20834394FB
:101ED00004E14016A8F3E4EEF0E00081006800831E
:101EE0000E94E20D4ECF0E943A19902FA12FB92FD8
:101EF00080E001C08395482F50E003E010E00E948D
:101F0000F81627EF34E0F901E00FF11F4491442364
:101F100081F04491491771F7F9013196E00FF11FF3
:101F200044914A1739F72E5F3F4F200F311FF901B7
:101F3000B4910B2FE4E00C944219F9D000E800931F
:101F4000610003E00093610000E800BF07E0009338
:101F50007F000FE005B900EF0EB9259A2D9A0E9477
:101F6000540D0E942D090E940E140CE010E00E94F6
:101F7000CB140E94EF0D0E94010E289A0E94300798
:101F8000089510919301112351F000E00093930103
:101F900021E006EF15E00E9455080FE50895013095
:101FA00021F408E100936000FFCF0330B1F701E0B6
:101FB000009393010EE50895E8E8F1E011851123FF
:101FC00049F000E0018721E009E016E00E94550891
:101FD00001E60895013029F401E0058301870AE054
:101FE00008950330A9F701E0018700E608958A9378
:101FF000E8E8F1E01285112359F000E0028703813F
:10200000002341F521E004E811E00E9480084BC064
:10201000013021F401E0028702E646C0043049F4B1
:1020200002810B5F028302810B3590F00AE5028387
:102030003AC00530C1F50281002319F00281055034
:1020400002830281053020F400E003830283DACFAB
:1020500001E0038302810E940B07802F1DE400E052
:102060000E94AB0819E401E00E94AB081EE402E004
:102070000E94AB0810E203E00E94AB08182F1295F3
:102080001F70105D04E00E94AB088F70805D182FF8
:1020900005E00E94AB0810E006E00E94AB0810E0EB
:1020A00001E00E94C30803E689910895592F482F43
:1020B000980101501040232B41F080E090E08D37D3
:1020C00020E09207ACF70196FACF842F952F089560
:1020D00010919401112321F100E00093940112E585
:1020E0000E94AB0815E401E00E94AB0816E502E08F
:1020F0000E94AB0810E203E00E94AB0810E304E08A
:102100000E94AB0817E305E00E94AB0810E006E070
:102110000E94AB0810E001E00E94C3080BE00895A4
:102120000330E1F701E0009394010AE008958A93F7
:1021300080E000E80093610003E000936100809379
:10214000700008E00093B60008EC0093B3008093A1
:102150006E0001E0009381000093B000E6EBF0E038
:10216000108111700091B6000470012BB9F708EED0
:1021700013E09CDF04C081E001E00093810088232C
:1021800081F5F8940FEF06BB07BB00E000938500D4
:10219000009384000093B200B99BFECF00938100AE
:1021A0007894B09B03C00FEF1FEF08C0009184002C
:1021B0003091850020E010E0020F131F0B3628E15C
:1021C000120734F0E6E6F0E000810A950083D4CFF0
:1021D000083E27E112077CF6E6E6F0E00081039571
:1021E000F5CF8991089500E80093800000E1009305
:1021F0008100E1E8F0E0008101600083F093890054
:10220000009197010093880004E012E10E947A1483
:1022100008950E943819A02F05E9402E01E0502EA4
:1022200083EB99E0F20106810023E1F000E00683F0
:1022300021E08C01045F1F4F378142E0349F000D85
:10224000111DF801059114910E945508F2010781B2
:1022500012E0019FFC01E00DF11D05911491F201C6
:1022600000831183A430C1F507810023A1F401E0AC
:1022700001C0039507838C01045F1F4F278132E063
:10228000239F000D111DF80105911491012BF201FE
:10229000078179F701C007810A95078321E08C0146
:1022A000045F1F4F378142E0349F000D111DF8017C
:1022B000059114910E945508F201078112E0019FD7
:1022C000800D911DFC0105911491F2010083118391
:1022D0000AE2E6E00C944019A530C9F407810395A1
:1022E00007838C01045F1F4F278132E0239F000D7D
:1022F000111DF80105911491012B19F400E0F20170
:10230000078321E08C01045F1F4FF201CBCFA13086
:1023100021F401E006830BE2DCCFA330C9F601E033
:10232000068308E2D6CF0E943A19802FA5E9B1E0D2
:10233000FD0100850023A1F000E00087048353DF46
:1023400021E00BEC19E00E94550801E000938E019A
:102350008430D9F4FD0102810035A0F000E51FC0F2
:1023600000918E010023A1F704E012E10E94A11464
:1023700000E0009380000093810001E0FD010087F0
:102380000AE23BC002810B5F0AC0853079F4FD018F
:1023900002810B3010F406E002C002810550028376
:1023A00000E000938900028100938800813041F5AC
:1023B00000918E01002300E091F000938E01E1E88E
:1023C000F0E000810E7F008304E012E10E94A1147E
:1023D00000E000938000009381002D9ACECFFD0194
:1023E000038301E00483FFDE21E00BEC19E00E948F
:1023F000550801E000938E010BE2E4E00C944219D1
:102400008330D1F700E0D9CFBA93AA93A5E9B1E020
:10241000FD010481002351F400E00383ED91FC9160
:1024200011970591FD01058301E0048305810023D7
:1024300009F07EC00381002321F003810A95038304
:1024400071C00D911C911197248132E0239F000DE2
:10245000111DF80145915491042F052BF9F100E26B
:1024600010E00E942A17FD01038304810395048371
:102470000D911C9111972481239F000D111DF801CE
:1024800005911491013020E0120741F0013012074C
:1024900029F0E1E8F0E00081016004C0E1E8F0E04B
:1024A00000810E7F0083F8940D911C911197FD011E
:1024B0002481239F000D111DF8012591349100E026
:1024C000009385000093840030938700209386005A
:1024D0007894FD0104810395048324C00D911C911F
:1024E0001197FD0124812395239F000D111DF801F3
:1024F0000591002319F001E0FD01EECF00E0FD01A0
:10250000048300938E01E1E8F0E000810E7F0083F8
:1025100004E012E10E94A11400E000938000009307
:1025200081002D9AED91FC9111970591FD0102C05A
:1025300005810A950583A991B99108959A938A9383
:1025400080E08093700020E006EF11E00E94800898
:1025500003C00E94E20D802F8130D9F720E001EF07
:1025600011E00E94800803C00E94E20D802F83309A
:10257000D9F720E00EEE11E00E94800803C00E940F
:10258000E20D802F8430D9F720E008EE11E00E94A0
:10259000800803C00E94E20D802F8230D9F720E02E
:1025A00003EE11E00E94800803C00E94E20D802F1C
:1025B0008530D9F720E00DED11E00E94800880E021
:1025C00003C00E94E20D802F8130D9F700E800930C
:1025D000800001E100938100E1E8F0E0008101600A
:1025E0000083F093890000E50093880088EC90E078
:1025F0000AC08C0110938700009386000EE110E062
:102600000E9456100597843600E0900794F70093D7
:1026100080000093810020E004ED11E00E9480081A
:102620001C9BFECF80E003C00E94E20D802F813012
:10263000D9F7E4EEF0E00081077F008300E007C0F7
:102640002FEF10E0F801E451FF4F20830395043190
:10265000B8F31C9BFECF04E610E00E9456101C99B4
:10266000FECFE4EEF0E000810860008300E00E940D
:10267000FD040E940405C801843C01E0900724F099
:102680008B3402E09007D4F020E002EC11E00E94CD
:1026900080089AD080E003C00E94E20D802F813034
:1026A000D9F70E942D0510E001E00E94C30880E0E8
:1026B00003C00E94E20D802F8130D9F701E00E9413
:1026C000FD040E940405C8018A3201E090071CF055
:1026D00081349007D4F020E004EB11E00E948008E0
:1026E00073D080E003C00E94E20D802F8130D9F7C3
:1026F0000E942D0510E001E00E94C30880E003C0A5
:102700000E94E20D802F8130D9F720E00EEA11E01F
:102710000E94800880E003C00E94E20D802F81307B
:10272000D9F702E00E94FD0480E00CC00E9404057D
:102730000E942D05000010E001E00E94C3080E94E5
:10274000E20D802F813091F7289A289880E007C009
:10275000182F282F30E001E00E94210E839582334C
:10276000B8F321E030E001E00E94370E289A289863
:1027700020E030E001E010E00E94590E80E001C04E
:102780008395823390F400E00E94FA0D8017C1F324
:1027900020E00EE911E00E94800816D080E0813030
:1027A00021F00E94E20D802FFACF289A01E00E94CA
:1027B000681080E003C00E94E20D802F8130D9F7BD
:1027C00008E100936000FFCF00E80093800001E182
:1027D00000938100E1E8F0E0008101600083F09364
:1027E000890000E50093880001E0009387000FE373
:1027F0000093860002E310E00E94561001E000936F
:1028000087000EED009386000CE211E00E94561046
:1028100000E00093800000938100089500E009C06B
:1028200020E012E0019FF001E05CFD4F2083218356
:1028300003950430A8F300E007C02FEF10E0F80183
:10284000E05CFD4F208703950430B8F302E000936D
:102850006E0006E207BD0CE004BD0895AA939A93AA
:102860008A93FA93EA933A922A921A920A927A9364
:102870006A935A934A933A932A931A930A93AFB757
:1028800080E011C0E0E4F2E002E0809FE00DF11D85
:102890002081318100E02030300721F0008111815A
:1028A000F80109958395843068F380E00EC0E8E470
:1028B000F2E090E0E80FF91F00810F3F29F00023BC
:1028C00019F000810A9500838395843080F3AFBFAF
:1028D0000991199129913991499159916991799168
:1028E0000990199029903990E991F99189919991DC
:1028F000A991189520E001C02395243058F432E0C6
:10290000239FF001E05CFD4F40815181401751074A
:1029100099F713C020E001C02395243080F4E0E44F
:10292000F2E032E0239FE00DF11D6081718140E013
:102930006030740789F70083118301E0089500E097
:10294000089520E001C02395243080F4E0E4F2E013
:1029500032E0239FE00DF11D408151814017510766
:1029600091F700E00083018301E0089500E00895FD
:1029700000E001C00395043060F4E8E4F2E010E008
:10298000E00FF11F10811F3FA9F710E0108303959E
:10299000089500E008951093C5000093C40002E07C
:1029A0000093C00000E10093C10006E00093C20064
:1029B0000895BA93AA93ABEFB1E090961C919097CB
:1029C0001123A1F100E090960C93909720E031E064
:1029D000A9010E94E81616960C93169716960C916C
:1029E00016970023C1F016960C9116970A3198F4A9
:1029F00041E051E016962C9116978D01095F1F4F0B
:102A00000E94960E21E017968D010E94800803E334
:102A1000A991B991089516962C93169701E41796EB
:102A20000C93179790963C9305E3F2CF023021F474
:102A300001E090960C93F8CF033049F701E09096AF
:102A40000C9302E3E5CF0E943A19802FABEFB1E07F
:102A5000FD0101A1002391F041E051E026818D01AB
:102A6000095F1F4F0E94960EFD010681002319F099
:102A700006810A95068300E001A34CC0068102A3EB
:102A800025E00AC000E2FD01E20FF51F00832A9550
:102A9000FD0102A10A9502A32F3F91F08D01095F6C
:102AA0001F4F42A150E0040F151FF80100810032B2
:102AB00048F30B3738F7FD0112A11F3F19F3E4CF9C
:102AC0001C9100E00E94AB08FD01118101E00E9411
:102AD000AB08FD01128102E00E94AB08FD011381E9
:102AE00003E00E94AB08FD01148104E00E94AB08E2
:102AF000FD011581106805E00E94AB0810E006E0BA
:102B00000E94AB08882311F00E94CF0810E001E07A
:102B10000E94C308882311F00E94CF08843031F549
:102B20009D01295F3F4FFD01068110E0200F311FFD
:102B3000F90100810A9500830081013250F00033D1
:102B400040F4003231F000E2008306E3E4E00C944C
:102B500042190A3320F0013410F409E3F5CF0B35A4
:102B600010F00AE5F1CF003280F7FBCF853001F598
:102B70009D01295F3F4FFD01068110E0200F311FAD
:102B8000F9010081039500830081013230F00033A8
:102B900020F4003211F000E3D7CF0A3320F00134E3
:102BA00010F401E4D1CF0B3570F6003270F6CBCFC4
:102BB000833041F4FD010681002339F206810A9534
:102BC0000683C3CF823099F4FD010681093108F0F4
:102BD000BCCF06810395068321E48D01095F1F4F59
:102BE000468150E0040F151FF8012083AECF8130DD
:102BF00009F0ABCFFD0106810395068320E08D012E
:102C0000095F1F4F4681040F121FF8012083FD0149
:102C1000068131E0A9010E94F41641E051E02681CD
:102C20008D01095F1F4F0E94810E01E0FD0101A38C
:102C300003E38CCF0E943A19802FABEFB1E0FD0186
:102C400003A10023B9F0F89400E80093610002E0CA
:102C500000936100789420E003ED19E00E9455088C
:102C600000E0FD0103A3FD9600830091C60001E092
:102C700000938F01E0ECF0E0008107FF19C0209184
:102C8000C6002D3041F1FD01FD960081093180F42F
:102C90008D010C5D1F4FFD01FD96408150E0040F3A
:102CA000151FF8012083FD01FD9600810395008327
:102CB000882309F46DC001E0FD0103A3F89400E846
:102CC0000093610003E000936100789400E00093BA
:102CD0008F0107E35EC0F89400E80093610003E011
:102CE000009361007894FD01FD960081002309F4B2
:102CF0004BC020E08D010C5D1F4FFD01FD96408112
:102D000050E0040F121FF8012083FD01FD9620837F
:102D100007C0F8014083FD01FD9600810395008303
:102D20008D010C5D1F4FFD01FD962081020F151FC7
:102D3000F80140818D01095F1F4FFD01FD96208143
:102D4000020F151F442329F720E0F801508301E00A
:102D5000FD0103A3FD96008131E0A9010E94F41654
:102D600041E051E0FD01FD9620818D01095F1F4F7B
:102D70000E94810EFD01FD960081FD01068300E0A9
:102D800000938F0103E305C001E0FD0103A3A1CF80
:102D900008E3E4E00C9442190BE80DBF02E00EBF1B
:102DA000CCE8D3E00E944D19002311F00E945D1978
:102DB0000E94AB0E0E9477190C947719F999FECFF7
:102DC00008954F5F5F4FFADF41BD52BDF89A0895F5
:102DD000FADF00B508954F5F5F4F41BD52BDF894D3
:102DE000FA9AF99A0FBE08950FB6E8DF00BDF5CF45
:102DF000149F102D059F100D049F002D110D089597
:102E00004A951AF0000F111FFBCF08954A951AF04A
:102E100016950795FBCF08954A951AF015950795D5
:102E2000FBCF089500241124EFE0001F111F001CA8
:102E3000111C0416150610F0041A150AEA95AAF7D3
:102E4000001F111FA00100951095089551954195FF
:102E500050400895FF27552312F4F160F7DF112346
:102E600012F4F09507D00E941217F0FD03D0F1FD87
:102E7000EDCF089511950195104008954A952AF0D7
:102E80003695279517950795F9CF08953095209594
:102E9000109501951F4F2F4F3F4F0895FF27112485
:102EA00077FB660F771F089409F4771F679517F86B
:102EB000EE27002437FB220F331F089409F4331F39
:102EC000279507F8089527FD0EC0EE0F001F111F6C
:102ED000221F3A953230B8F7332319F427FD31E039
:102EE00002C027FF30E0E03821F400FF08940EF420
:102EF00088940F4F1F4F2F4F3F4F323038F43323FA
:102F000019F427FD31E002C027FF30E03F3F31F0E8
:102F1000220F000C379527950895A2C0A7C0032E55
:102F2000002012F40E944617E02F012F122F232FAA
:102F30003EE9D0CF0024F8CFBBDF432F4F5758F0E6
:102F4000403258F000202AF00FEF1FEF2FEF3FE73D
:102F5000089530E887C0332785C0322F212F102FE6
:102F60000E2F4F5141950E943E1707FE08950C9475
:102F70004617F901EE0FFF1F37FBFF3F31F0EF2B34
:102F8000E12BE02B8894B8940895E0301E070E07DB
:102F900021F008949894B89408959894889438945B
:102FA0000895FB01EE0FFF1F77FBFF3F31F0EF2B82
:102FB000E52BE42B8894B8940895E0305E074E0723
:102FC00061F3E7CFEEDF68F021F43723262F8A0183
:102FD0000895372FFBCFE5DF20F00BF0089573271E
:102FE000EAF748C0C6DFE8F3B3F361F3DADFC8F30A
:102FF00083F3A1F353DF401751076207730778F09B
:10300000332E372F732D322E262F632D312E152F71
:10301000532D302E042F432D302C012C132C371719
:1030200039F0669557954795F795E0407395F7CF3A
:10303000E7FBEE0FE0E010245AF0EF0F041F151F1E
:10304000261F50F4279517950795E795339542CF9E
:10305000EF0B040B150B260B3DCFE0E87E27C2CF0C
:10306000302D307822271127002708953FE7302997
:1030700020E8F9CF302D3F672FEFF5CF92DFD0F367
:10308000C9F37078372708958CDFA0F39BF3F9CF4D
:10309000307837279BCF6DDF68F383F3A9F381DFA7
:1030A00048F3B3F3A9F3FADE0124E8943F57E04074
:1030B000370FEF1F12F0D1F603C03A3E88F2689442
:1030C000E0E00A92AA933A93AA27332422243327D2
:1030D000049FF001059FF00D712D731F149FF00DDB
:1030E000711D221C069F700D211C331C159F700D35
:1030F000211C331E249F700D211C331E169F200C93
:10310000311CAA1F259F200C311CA31F269F300CA9
:10311000A11D39915EF43395A69537942794779540
:10312000F795E79533953130BCF316C0AA2322F00A
:10313000332351F4339510C0339571F4A99109905C
:1031400095CFA7FD09C03A95EE0FFF1F771F221CF0
:10315000331CAA1F3230A8F7E894FE2B09F06894BC
:103160002A2F8101E72FA9910990BDCE1ADF10F017
:103170000BF087CF7FCF15DFE9F3E0F3032E0726AF
:103180006FCF032E072672CFF4DEA0F37BF399F303
:1031900008DF80F39BF3A9F381DE012427FD06C03D
:1031A000000F111F221F3150E040F8CF67FD06C00D
:1031B000440F551F661F7150F040F8CFE894371B3D
:1031C000EF0B3158EF4F2AF0EE23E9F63F3FD9F2EB
:1031D00003C03A3EA8F26894E0E0F0E011241394B2
:1031E00040175107620740F03A953F3F09F4689451
:1031F000000F111F221FEE1F041B150B260BEF0BD8
:10320000000F111F221FEE1F77E17A95A2F004171D
:1032100015072607EF0730F0041B150B260BEF0BE5
:10322000089401C08894111C221C331C000F111F2C
:10323000221FEE1FEACF401751076207FE0718F062
:1032400021F4E0E803C0EFEF01C0E0E0332311F028
:1032500056F4E894369427941794E79508F4689404
:1032600033953130BCF3012D122D232D3CCE6A92C3
:103270005A924A92BA93AA939A938A9308956E8027
:103280005D804C80BB81AA8199818881F0E00FB676
:10329000F894CE0FDF1F0FBE089501E0089520E0DF
:1032A00002D0E9F708952D9301501040202F212BD3
:1032B00008952591F8DFE9F708958EEE99E0FC0175
:1032C00005911491FC013296A591B491FC013496BC
:1032D00025913491422F432B19F0F901EADF01C007
:1032E000DEDF069619E08A3F910748F30895000053
:1032F0008895FECF9A993940030101010000000032
:1033000000000000000000000000000000000000BD
:1033100000000000000000000000000000000000AD
:10332000000000000000000000000000000000039A
:1033300000000F0132344800313248000000000024
:103340000000000000000000000000001F1C1F1E05
:103350001F1E1F1F1E1F1E1F0C0102030405060750
:1033600008090A0B0C0102030405060708090A0BE9
:1033700000010001010201004F66660000001E010D
:1033800000000000000101010100005000000001E8
:1033900000014572726F722044617461666C6173E2
:1033A00068004C69676874004572726F7220566FCE
:1033B0006C74616765004572726F722054656D7040
:1033C00065726174757265004C4344207465737452
:1033D00000536F756E6400446F776E0052696768C2
:1033E00074005570004C6566740054657374000079
:1033F00000000000000000000000000000000000CD
:1034000000000000000000000000000000000001BB
:1034100001000100000000000000000000000000AA
:103420000000000000000000000000000000FFFF9E
:10343000FFFFFFFFFFFFFFFFFFFFFFFFFFFFFFFF9C
:10344000FFFFFFFFFFFFFFFFFFFFFFFFFFFFFFFF8C
:10345000FFFFFFFFFFFFFFFFFFFFFFFFFFFFFFFF7C
:10346000FFFFFFFFFFFFFFFFFFFFFFFFFFFFFFFF6C
:103800000C949D1EFFFFFFFFFFFFFFFF0C94211E86
:1038100024971ED200E800BF07E000937F000FEF5F
:1038200005B90EB900E80093610002E00093610061
:1038300000E00093C5000CE00093C40002E0009398
:10384000C00008E10093C10006E00093C20001E05F
:1038500005BF02E005BF789400E500936C0000E826
:103860000CBB0DBB08C001E005BF00E005BFF8942C
:10387000E0E0F0E009951E9BF6CF1C990AC00E947B
:10388000851E0B3111F4F89410C00FE30E947B1ECB
:10389000F2CF02E00093C00007E003BF889500E08C
:1038A00003BFE9CF09E50E947B1E0E94851E0136F9
:1038B000C9F3013461F41ED10E94851E2B2F220F03
:1038C000220B0883B9832A832B830DE0ECCF0536C6
:1038D000B9F400E0088309830A830B8317B710FD4E
:1038E000FDCF43E0F3D0F80147BFEFD02A813B8101
:1038F0000058F7D000301843204030407CF3E5CF2B
:10390000023641F409E50E947B1E00E00E947B1E06
:1039100000E8C9CF023431F4EDD00E94851EEED00C
:10392000F5D0C1CF073631F4E5D00E94851EE6D030
:103930005DD1BBCF0235A1F417B710FDFDCF11E16A
:1039400000E0002E17BFC1D0000F111F0F5F1F4FE7
:10395000F8010491CCD0A2D00491C9D0BFD0A5CF9A
:10396000033629F40E94851E802F90E0AECF0334E9
:1039700079F40E94851E902B17B710FDFDCF41E012
:10398000A5D08CD00C0147BFE895A0D0A7D09DCF83
:103990000D36A9F49BD02A813B8100301C41204088
:1039A000304024F00FE30E947B1E8FCF17B710FD2D
:1039B000FDCF45E0198172D047BFE89586CF04342A
:1039C00061F417B710FDFDCF84D00E94851E00BDA5
:1039D000FA9AF99AF999FECFD8CF043621F479D022
:1039E000F89A00B5BACF003511F00C3409F46DCF58
:1039F000053421F408E10093600067CF003711F42B
:103A000003E551CF043729F405E70E947B1E00E04F
:103A10004ACF083721F0093711F0043519F40E9414
:103A2000851E53CF0335A1F401E40E947B1E06E5F9
:103A30000E947B1E02E50E947B1E02E40E947B1E08
:103A40000FE40E947B1E0FE40E947B1E04E52BCF37
:103A5000063529F401E30E947B1E04E324CF0337DB
:103A600041F405E00E947B1E04E90E947B1E0EE1EA
:103A70001ACF0B3109F419CF0FE315CFFD010081E7
:103A80001181228133810F5F05D00083118322834E
:103A9000338308951F4F2F4F3F4F0895000F111F7D
:103AA000F80108950ED03C911397000F111F221FAB
:103AB000331F02D0139708950D931D932D933C93BC
:103AC00008950D911D912D910895E8950881198112
:103AD0000895088101BD198112BD08952A813B8195
:103AE0000F5FD8DF088319832A833B8308950E94E0
:103AF0007B1EECCF0E94851EB02F0895802F9B2F38
:103B00000E94851EAE01202F8C0108950E94AB1EDD
:103B1000EF97EF9722972801DA01253431F580E0FD
:103B200090E007C00E94851EFE01E80FF91F008388
:103B3000019684159505B0F317B710FDFDCF80E011
:103B400090E00EC047D045D012BDFE01E80FF91F2E
:103B5000008100BDFA9AF99AF999FECF8FDF01969C
:103B60008415950578F30DE029C0263431F59ADFE8
:103B700031D0C8010E94851E602E0E94851E702EC5
:103B800041E028D0F801030147BF26D027D00EEF2F
:103B9000400E0FEF501E042D052961F705E0FC01D2
:103BA00007BFE89517B710FDFDCF11E1002417BF3F
:103BB00013D03C91139708D0D6CF0FE3EF96EF9632
:103BC0002296E8E00C94B41E359527951795079535
:103BD00073CF01BD76DF6ECFE89573CF3C910E5F5A
:103BE00059DF3C932E931E930E9308950E94AF1EAF
:103BF000C801DA01253469F4EDDFEBDF12BD3EDFE9
:103C0000F89A00B50E947B1E0197082F092BA1F797
:103C100010C0263471F446DFDDDF0ED013970F5F3E
:103C20001F4F0AD0DBDF0297082F092BA9F7D2DF3D
:103C3000CBDFE4E00C94B81EF80104910E947B1ED7
:103C400040CF1895980101501040232BD9F70895C3
:103C500000E80093610003E00093610000E000933E
:103C6000700008E00093B60008EC0093B30000E099
:103C700000936E0001E0009381000093B00000917A
:103C8000B600102F11700470012BC9F708EE13E075
:103C9000D9DF20E00FEF06BB07BB00E000938500F3
:103CA000009384000093B200B99BFECF0093810083
:103CB000B09916C0009184005091850040E010E05A
:103CC000040F151F0B3638E1130734F0009166001E
:103CD0000A950093660009C0083E37E1130724F4F3
:103CE000009166000395F5CF21E001E0009381008B
:103CF000222381F208950093C6000091C00006FFC0
:103D0000FCCF00640093C0000895392F282F80E075
:103D100090E057F41091C00017FD0AC0803107E20F
:103D2000900734F40196F6CF1091C00017FFFCCF36
:103D30000091C600822F932F08950FE30DBF01E07D
:103D40000EBFC0E4D3E00E94C31E0E94081C0E9464
:103D5000C51E0C94C51E7A926A925A924A92BA93E0
:103D6000AA939A938A9308957F806E805D804C8099
:103D7000BB81AA8199818881F0E00FB6F894CE0FBB
:103D8000DF1F0FBE089501E0089500008895FECF63
:103D9000FFFFFFFFFFFFFFFFFFFFFFFFFFFFFFFF33
:103DA000FFFFFFFFFFFFFFFFFFFFFFFFFFFFFFFF23
:103DB000FFFFFFFFFFFFFFFFFFFFFFFFFFFFFFFF13
:103DC000FFFFFFFFFFFFFFFFFFFFFFFFFFFFFFFF03
:00000001FF
